{
  "_format": "hh-sol-artifact-1",
  "contractName": "Raffle",
  "sourceName": "contracts/Raffle.sol",
  "abi": [
    {
      "inputs": [
        {
          "internalType": "address",
          "name": "vrfCoordinatorV2",
          "type": "address"
        },
        {
          "internalType": "uint256",
          "name": "entranceFee",
          "type": "uint256"
        },
        {
          "internalType": "bytes32",
          "name": "gasLane",
          "type": "bytes32"
        },
        {
          "internalType": "uint64",
          "name": "subcriptionId",
          "type": "uint64"
        },
        {
          "internalType": "uint32",
          "name": "callbackGasLimit",
          "type": "uint32"
        },
        {
          "internalType": "uint256",
          "name": "interval",
          "type": "uint256"
        }
      ],
      "stateMutability": "nonpayable",
      "type": "constructor"
    },
    {
      "inputs": [
        {
          "internalType": "address",
          "name": "have",
          "type": "address"
        },
        {
          "internalType": "address",
          "name": "want",
          "type": "address"
        }
      ],
      "name": "OnlyCoordinatorCanFulfill",
      "type": "error"
    },
    {
      "inputs": [],
      "name": "RaffleState_notOpen",
      "type": "error"
    },
    {
      "inputs": [],
      "name": "Raffle_TransferFailed",
      "type": "error"
    },
    {
      "inputs": [
        {
          "internalType": "uint256",
          "name": "currentBalnace",
          "type": "uint256"
        },
        {
          "internalType": "uint256",
          "name": "numPlayers",
          "type": "uint256"
        },
        {
          "internalType": "uint256",
          "name": "raffeState",
          "type": "uint256"
        }
      ],
      "name": "Raffle_UpkeepNotNeeded",
      "type": "error"
    },
    {
      "inputs": [],
      "name": "Raffle_notEnoughEther",
      "type": "error"
    },
    {
      "anonymous": false,
      "inputs": [
        {
          "indexed": true,
          "internalType": "address",
          "name": "recentWinner",
          "type": "address"
        }
      ],
      "name": "PicckedWinner",
      "type": "event"
    },
    {
      "anonymous": false,
      "inputs": [
        {
          "indexed": true,
          "internalType": "address",
          "name": "player",
          "type": "address"
        }
      ],
      "name": "RaffleEnter",
      "type": "event"
    },
    {
      "anonymous": false,
      "inputs": [
        {
          "indexed": true,
          "internalType": "uint256",
          "name": "requestId",
          "type": "uint256"
        }
      ],
      "name": "RaffleRequestRandomWinner",
      "type": "event"
    },
    {
      "inputs": [
        {
          "internalType": "bytes",
          "name": "",
          "type": "bytes"
        }
      ],
      "name": "checkUpkeep",
      "outputs": [
        {
          "internalType": "bool",
          "name": "upkeepNeeded",
          "type": "bool"
        },
        {
          "internalType": "bytes",
          "name": "",
          "type": "bytes"
        }
      ],
      "stateMutability": "nonpayable",
      "type": "function"
    },
    {
      "inputs": [],
      "name": "enterRaffle",
      "outputs": [],
      "stateMutability": "payable",
      "type": "function"
    },
    {
      "inputs": [],
      "name": "getEntrance",
      "outputs": [
        {
          "internalType": "uint256",
          "name": "",
          "type": "uint256"
        }
      ],
      "stateMutability": "view",
      "type": "function"
    },
    {
      "inputs": [],
      "name": "getNumWords",
      "outputs": [
        {
          "internalType": "uint256",
          "name": "",
          "type": "uint256"
        }
      ],
      "stateMutability": "pure",
      "type": "function"
    },
    {
      "inputs": [],
      "name": "getNumberOfPlayers",
      "outputs": [
        {
          "internalType": "uint256",
          "name": "",
          "type": "uint256"
        }
      ],
      "stateMutability": "view",
      "type": "function"
    },
    {
      "inputs": [
        {
          "internalType": "uint256",
          "name": "index",
          "type": "uint256"
        }
      ],
      "name": "getPlayer",
      "outputs": [
        {
          "internalType": "address",
          "name": "",
          "type": "address"
        }
      ],
      "stateMutability": "view",
      "type": "function"
    },
    {
      "inputs": [],
      "name": "getRaffleState",
      "outputs": [
        {
          "internalType": "enum Raffle.RaffleState",
          "name": "",
          "type": "uint8"
        }
      ],
      "stateMutability": "view",
      "type": "function"
    },
    {
      "inputs": [],
      "name": "getRecentWiner",
      "outputs": [
        {
          "internalType": "address",
          "name": "",
          "type": "address"
        }
      ],
      "stateMutability": "view",
      "type": "function"
    },
    {
      "inputs": [],
      "name": "getRequestConfirmation",
      "outputs": [
        {
          "internalType": "uint256",
          "name": "",
          "type": "uint256"
        }
      ],
      "stateMutability": "pure",
      "type": "function"
    },
    {
      "inputs": [],
      "name": "getTimeStamp",
      "outputs": [
        {
          "internalType": "uint256",
          "name": "",
          "type": "uint256"
        }
      ],
      "stateMutability": "view",
      "type": "function"
    },
    {
      "inputs": [
        {
          "internalType": "bytes",
          "name": "",
          "type": "bytes"
        }
      ],
      "name": "performUpkeep",
      "outputs": [],
      "stateMutability": "nonpayable",
      "type": "function"
    },
    {
      "inputs": [
        {
          "internalType": "uint256",
          "name": "requestId",
          "type": "uint256"
        },
        {
          "internalType": "uint256[]",
          "name": "randomWords",
          "type": "uint256[]"
        }
      ],
      "name": "rawFulfillRandomWords",
      "outputs": [],
      "stateMutability": "nonpayable",
      "type": "function"
    }
  ],
  "bytecode": "0x6101606040523480156200001257600080fd5b50604051620017bd380380620017bd8339818101604052810190620000389190620002a0565b858073ffffffffffffffffffffffffffffffffffffffff1660808173ffffffffffffffffffffffffffffffffffffffff1660601b81525050508460a081815250508360c081815250508573ffffffffffffffffffffffffffffffffffffffff1660e08173ffffffffffffffffffffffffffffffffffffffff1660601b815250508267ffffffffffffffff166101008167ffffffffffffffff1660c01b815250508163ffffffff166101208163ffffffff1660e01b815250506000600160146101000a81548160ff021916908360018111156200011957620001186200033c565b5b0217905550806101408181525050426002819055505050505050506200036b565b600080fd5b600073ffffffffffffffffffffffffffffffffffffffff82169050919050565b60006200016c826200013f565b9050919050565b6200017e816200015f565b81146200018a57600080fd5b50565b6000815190506200019e8162000173565b92915050565b6000819050919050565b620001b981620001a4565b8114620001c557600080fd5b50565b600081519050620001d981620001ae565b92915050565b6000819050919050565b620001f481620001df565b81146200020057600080fd5b50565b6000815190506200021481620001e9565b92915050565b600067ffffffffffffffff82169050919050565b62000239816200021a565b81146200024557600080fd5b50565b60008151905062000259816200022e565b92915050565b600063ffffffff82169050919050565b6200027a816200025f565b81146200028657600080fd5b50565b6000815190506200029a816200026f565b92915050565b60008060008060008060c08789031215620002c057620002bf6200013a565b5b6000620002d089828a016200018d565b9650506020620002e389828a01620001c8565b9550506040620002f689828a0162000203565b94505060606200030989828a0162000248565b93505060806200031c89828a0162000289565b92505060a06200032f89828a01620001c8565b9150509295509295509295565b7f4e487b7100000000000000000000000000000000000000000000000000000000600052602160045260246000fd5b60805160601c60a05160c05160e05160601c6101005160c01c6101205160e01c610140516113dd620003e0600039600061076f0152600061062d0152600061060a015260006105ad015260006105e901526000818161038901526106f90152600081816102c9015261031d01526113dd6000f3fe6080604052600436106100a75760003560e01c80636e04ff0d116100645780636e04ff0d14610189578063ca6a9ef8146101c7578063caf48ba0146101f2578063da235b221461021d578063e55ae4e814610248578063fd6673f514610285576100a7565b8063115cbaf5146100ac5780631fe543e3146100d75780632cfcc539146101005780634585e33b1461010a578063520684e61461013357806353a2c19a1461015e575b600080fd5b3480156100b857600080fd5b506100c16102b0565b6040516100ce9190610bbc565b60405180910390f35b3480156100e357600080fd5b506100fe60048036038101906100f99190610d7a565b6102c7565b005b610108610387565b005b34801561011657600080fd5b50610131600480360381019061012c9190610e31565b6104f6565b005b34801561013f57600080fd5b506101486106f5565b6040516101559190610e8d565b60405180910390f35b34801561016a57600080fd5b5061017361071d565b6040516101809190610e8d565b60405180910390f35b34801561019557600080fd5b506101b060048036038101906101ab9190610f5d565b61072c565b6040516101be929190611049565b60405180910390f35b3480156101d357600080fd5b506101dc6107d9565b6040516101e99190610e8d565b60405180910390f35b3480156101fe57600080fd5b506102076107e6565b60405161021491906110ba565b60405180910390f35b34801561022957600080fd5b50610232610810565b60405161023f9190610e8d565b60405180910390f35b34801561025457600080fd5b5061026f600480360381019061026a91906110d5565b61081a565b60405161027c91906110ba565b60405180910390f35b34801561029157600080fd5b5061029a610861565b6040516102a79190610e8d565b60405180910390f35b6000600160149054906101000a900460ff16905090565b7f000000000000000000000000000000000000000000000000000000000000000073ffffffffffffffffffffffffffffffffffffffff163373ffffffffffffffffffffffffffffffffffffffff161461037957337f00000000000000000000000000000000000000000000000000000000000000006040517f1cf993f4000000000000000000000000000000000000000000000000000000008152600401610370929190611102565b60405180910390fd5b610383828261086d565b5050565b7f00000000000000000000000000000000000000000000000000000000000000003410156103e1576040517f3247b6fc00000000000000000000000000000000000000000000000000000000815260040160405180910390fd5b600060018111156103f5576103f4610b45565b5b600160149054906101000a900460ff16600181111561041757610416610b45565b5b1461044e576040517f5f24256a00000000000000000000000000000000000000000000000000000000815260040160405180910390fd5b6000339080600181540180825580915050600190039060005260206000200160009091909190916101000a81548173ffffffffffffffffffffffffffffffffffffffff021916908373ffffffffffffffffffffffffffffffffffffffff1602179055503373ffffffffffffffffffffffffffffffffffffffff167f0805e1d667bddb8a95f0f09880cf94f403fb596ce79928d9f29b74203ba284d460405160405180910390a2565b60006105106040518060200160405280600081525061072c565b5090508061057f5747600080549050600160149054906101000a900460ff16600181111561054157610540610b45565b5b6040517fe059521b0000000000000000000000000000000000000000000000000000000081526004016105769392919061112b565b60405180910390fd5b60018060146101000a81548160ff021916908360018111156105a4576105a3610b45565b5b021790555060007f000000000000000000000000000000000000000000000000000000000000000073ffffffffffffffffffffffffffffffffffffffff16635d3b1d307f00000000000000000000000000000000000000000000000000000000000000007f000000000000000000000000000000000000000000000000000000000000000060037f000000000000000000000000000000000000000000000000000000000000000060016040518663ffffffff1660e01b815260040161066e9594939291906111da565b602060405180830381600087803b15801561068857600080fd5b505af115801561069c573d6000803e3d6000fd5b505050506040513d601f19601f820116820180604052508101906106c09190611242565b9050807f4dac394f91d0bee728ea7f660c37b16f7167bdac1905ad7234bf935d04c74ef160405160405180910390a250505050565b60007f0000000000000000000000000000000000000000000000000000000000000000905090565b6000600163ffffffff16905090565b600060606000600160149054906101000a900460ff16600181111561075457610753610b45565b5b6000600181111561076857610767610b45565b5b14905060007f00000000000000000000000000000000000000000000000000000000000000006002544261079c919061129e565b119050600080600080549050119050600080471190508280156107bc5750835b80156107c55750805b80156107ce5750815b955050505050915091565b6000600361ffff16905090565b6000600160009054906101000a900473ffffffffffffffffffffffffffffffffffffffff16905090565b6000600254905090565b600080828154811061082f5761082e6112d2565b5b9060005260206000200160009054906101000a900473ffffffffffffffffffffffffffffffffffffffff169050919050565b60008080549050905090565b6000808054905082600081518110610888576108876112d2565b5b602002602001015161089a9190611330565b905060008082815481106108b1576108b06112d2565b5b9060005260206000200160009054906101000a900473ffffffffffffffffffffffffffffffffffffffff16905080600160006101000a81548173ffffffffffffffffffffffffffffffffffffffff021916908373ffffffffffffffffffffffffffffffffffffffff1602179055506000600160146101000a81548160ff0219169083600181111561094557610944610b45565b5b0217905550600067ffffffffffffffff81111561096557610964610c37565b5b6040519080825280602002602001820160405280156109935781602001602082028036833780820191505090505b50600090805190602001906109a9929190610a9e565b504260028190555060008173ffffffffffffffffffffffffffffffffffffffff16476040516109d790611392565b60006040518083038185875af1925050503d8060008114610a14576040519150601f19603f3d011682016040523d82523d6000602084013e610a19565b606091505b5050905080610a54576040517fba31c4f300000000000000000000000000000000000000000000000000000000815260040160405180910390fd5b8173ffffffffffffffffffffffffffffffffffffffff167fb8033a4cd86976545825e843f6d97133ca0c9f681876f9239922427f5807b16e60405160405180910390a25050505050565b828054828255906000526020600020908101928215610b17579160200282015b82811115610b165782518260006101000a81548173ffffffffffffffffffffffffffffffffffffffff021916908373ffffffffffffffffffffffffffffffffffffffff16021790555091602001919060010190610abe565b5b509050610b249190610b28565b5090565b5b80821115610b41576000816000905550600101610b29565b5090565b7f4e487b7100000000000000000000000000000000000000000000000000000000600052602160045260246000fd5b60028110610b8557610b84610b45565b5b50565b6000819050610b9682610b74565b919050565b6000610ba682610b88565b9050919050565b610bb681610b9b565b82525050565b6000602082019050610bd16000830184610bad565b92915050565b6000604051905090565b600080fd5b600080fd5b6000819050919050565b610bfe81610beb565b8114610c0957600080fd5b50565b600081359050610c1b81610bf5565b92915050565b600080fd5b6000601f19601f8301169050919050565b7f4e487b7100000000000000000000000000000000000000000000000000000000600052604160045260246000fd5b610c6f82610c26565b810181811067ffffffffffffffff82111715610c8e57610c8d610c37565b5b80604052505050565b6000610ca1610bd7565b9050610cad8282610c66565b919050565b600067ffffffffffffffff821115610ccd57610ccc610c37565b5b602082029050602081019050919050565b600080fd5b6000610cf6610cf184610cb2565b610c97565b90508083825260208201905060208402830185811115610d1957610d18610cde565b5b835b81811015610d425780610d2e8882610c0c565b845260208401935050602081019050610d1b565b5050509392505050565b600082601f830112610d6157610d60610c21565b5b8135610d71848260208601610ce3565b91505092915050565b60008060408385031215610d9157610d90610be1565b5b6000610d9f85828601610c0c565b925050602083013567ffffffffffffffff811115610dc057610dbf610be6565b5b610dcc85828601610d4c565b9150509250929050565b600080fd5b60008083601f840112610df157610df0610c21565b5b8235905067ffffffffffffffff811115610e0e57610e0d610dd6565b5b602083019150836001820283011115610e2a57610e29610cde565b5b9250929050565b60008060208385031215610e4857610e47610be1565b5b600083013567ffffffffffffffff811115610e6657610e65610be6565b5b610e7285828601610ddb565b92509250509250929050565b610e8781610beb565b82525050565b6000602082019050610ea26000830184610e7e565b92915050565b600080fd5b600067ffffffffffffffff821115610ec857610ec7610c37565b5b610ed182610c26565b9050602081019050919050565b82818337600083830152505050565b6000610f00610efb84610ead565b610c97565b905082815260208101848484011115610f1c57610f1b610ea8565b5b610f27848285610ede565b509392505050565b600082601f830112610f4457610f43610c21565b5b8135610f54848260208601610eed565b91505092915050565b600060208284031215610f7357610f72610be1565b5b600082013567ffffffffffffffff811115610f9157610f90610be6565b5b610f9d84828501610f2f565b91505092915050565b60008115159050919050565b610fbb81610fa6565b82525050565b600081519050919050565b600082825260208201905092915050565b60005b83811015610ffb578082015181840152602081019050610fe0565b8381111561100a576000848401525b50505050565b600061101b82610fc1565b6110258185610fcc565b9350611035818560208601610fdd565b61103e81610c26565b840191505092915050565b600060408201905061105e6000830185610fb2565b81810360208301526110708184611010565b90509392505050565b600073ffffffffffffffffffffffffffffffffffffffff82169050919050565b60006110a482611079565b9050919050565b6110b481611099565b82525050565b60006020820190506110cf60008301846110ab565b92915050565b6000602082840312156110eb576110ea610be1565b5b60006110f984828501610c0c565b91505092915050565b600060408201905061111760008301856110ab565b61112460208301846110ab565b9392505050565b60006060820190506111406000830186610e7e565b61114d6020830185610e7e565b61115a6040830184610e7e565b949350505050565b6000819050919050565b61117581611162565b82525050565b600067ffffffffffffffff82169050919050565b6111988161117b565b82525050565b600061ffff82169050919050565b6111b58161119e565b82525050565b600063ffffffff82169050919050565b6111d4816111bb565b82525050565b600060a0820190506111ef600083018861116c565b6111fc602083018761118f565b61120960408301866111ac565b61121660608301856111cb565b61122360808301846111cb565b9695505050505050565b60008151905061123c81610bf5565b92915050565b60006020828403121561125857611257610be1565b5b60006112668482850161122d565b91505092915050565b7f4e487b7100000000000000000000000000000000000000000000000000000000600052601160045260246000fd5b60006112a982610beb565b91506112b483610beb565b9250828210156112c7576112c661126f565b5b828203905092915050565b7f4e487b7100000000000000000000000000000000000000000000000000000000600052603260045260246000fd5b7f4e487b7100000000000000000000000000000000000000000000000000000000600052601260045260246000fd5b600061133b82610beb565b915061134683610beb565b92508261135657611355611301565b5b828206905092915050565b600081905092915050565b50565b600061137c600083611361565b91506113878261136c565b600082019050919050565b600061139d8261136f565b915081905091905056fea264697066735822122005f54515fd584e44a27064534ea67f8e49010bee6402dcd7d485ef565007195764736f6c63430008080033",
  "linkReferences": {},
  "deployedLinkReferences": {}
}