{
  "_format": "hh-sol-artifact-1",
  "contractName": "Raffle",
  "sourceName": "contracts/Raffle.sol",
  "abi": [
    {
      "inputs": [
        {
          "internalType": "address",
          "name": "vrfCoordinatorV2",
          "type": "address"
        },
        {
          "internalType": "uint256",
          "name": "entranceFee",
          "type": "uint256"
        },
        {
          "internalType": "bytes32",
          "name": "gasLane",
          "type": "bytes32"
        },
        {
          "internalType": "uint64",
          "name": "subcriptionId",
          "type": "uint64"
        },
        {
          "internalType": "uint32",
          "name": "callbackGasLimit",
          "type": "uint32"
        }
      ],
      "stateMutability": "nonpayable",
      "type": "constructor"
    },
    {
      "inputs": [
        {
          "internalType": "address",
          "name": "have",
          "type": "address"
        },
        {
          "internalType": "address",
          "name": "want",
          "type": "address"
        }
      ],
      "name": "OnlyCoordinatorCanFulfill",
      "type": "error"
    },
    {
      "inputs": [],
      "name": "Raffle_TransferFailed",
      "type": "error"
    },
    {
      "inputs": [],
      "name": "Raffle_notEnoughEther",
      "type": "error"
    },
    {
      "anonymous": false,
      "inputs": [
        {
          "indexed": true,
          "internalType": "address",
          "name": "recentWinner",
          "type": "address"
        }
      ],
      "name": "PicckedWinner",
      "type": "event"
    },
    {
      "anonymous": false,
      "inputs": [
        {
          "indexed": true,
          "internalType": "address",
          "name": "player",
          "type": "address"
        }
      ],
      "name": "RaffleEnter",
      "type": "event"
    },
    {
      "anonymous": false,
      "inputs": [
        {
          "indexed": true,
          "internalType": "uint256",
          "name": "requestId",
          "type": "uint256"
        }
      ],
      "name": "RaffleRequestRandomWinner",
      "type": "event"
    },
    {
      "inputs": [],
      "name": "enterRaffle",
      "outputs": [],
      "stateMutability": "payable",
      "type": "function"
    },
    {
      "inputs": [],
      "name": "getEntrance",
      "outputs": [
        {
          "internalType": "uint256",
          "name": "",
          "type": "uint256"
        }
      ],
      "stateMutability": "view",
      "type": "function"
    },
    {
      "inputs": [
        {
          "internalType": "uint256",
          "name": "index",
          "type": "uint256"
        }
      ],
      "name": "getPlayer",
      "outputs": [
        {
          "internalType": "address",
          "name": "",
          "type": "address"
        }
      ],
      "stateMutability": "view",
      "type": "function"
    },
    {
      "inputs": [],
      "name": "getRecentWiner",
      "outputs": [
        {
          "internalType": "address",
          "name": "",
          "type": "address"
        }
      ],
      "stateMutability": "view",
      "type": "function"
    },
    {
      "inputs": [
        {
          "internalType": "uint256",
          "name": "requestId",
          "type": "uint256"
        },
        {
          "internalType": "uint256[]",
          "name": "randomWords",
          "type": "uint256[]"
        }
      ],
      "name": "rawFulfillRandomWords",
      "outputs": [],
      "stateMutability": "nonpayable",
      "type": "function"
    },
    {
      "inputs": [],
      "name": "requestRandomWords",
      "outputs": [],
      "stateMutability": "nonpayable",
      "type": "function"
    }
  ],
  "bytecode": "0x6101406040523480156200001257600080fd5b5060405162000ec038038062000ec0833981810160405281019062000038919062000261565b848073ffffffffffffffffffffffffffffffffffffffff1660808173ffffffffffffffffffffffffffffffffffffffff1660601b81525050508360a081815250508260c081815250508473ffffffffffffffffffffffffffffffffffffffff1660e08173ffffffffffffffffffffffffffffffffffffffff1660601b815250508167ffffffffffffffff166101008167ffffffffffffffff1660c01b815250508063ffffffff166101208163ffffffff1660e01b815250505050505050620002e9565b600080fd5b600073ffffffffffffffffffffffffffffffffffffffff82169050919050565b60006200012d8262000100565b9050919050565b6200013f8162000120565b81146200014b57600080fd5b50565b6000815190506200015f8162000134565b92915050565b6000819050919050565b6200017a8162000165565b81146200018657600080fd5b50565b6000815190506200019a816200016f565b92915050565b6000819050919050565b620001b581620001a0565b8114620001c157600080fd5b50565b600081519050620001d581620001aa565b92915050565b600067ffffffffffffffff82169050919050565b620001fa81620001db565b81146200020657600080fd5b50565b6000815190506200021a81620001ef565b92915050565b600063ffffffff82169050919050565b6200023b8162000220565b81146200024757600080fd5b50565b6000815190506200025b8162000230565b92915050565b600080600080600060a0868803121562000280576200027f620000fb565b5b600062000290888289016200014e565b9550506020620002a38882890162000189565b9450506040620002b688828901620001c4565b9350506060620002c98882890162000209565b9250506080620002dc888289016200024a565b9150509295509295909350565b60805160601c60a05160c05160e05160601c6101005160c01c6101205160e01c610b6d6200035360003960006103cf015260006103ac0152600061034f0152600061038b0152600081816101f901526102fd015260008181610139015261018d0152610b6d6000f3fe6080604052600436106100555760003560e01c80631fe543e31461005a5780632cfcc53914610083578063520684e61461008d578063caf48ba0146100b8578063e0c86289146100e3578063e55ae4e8146100fa575b600080fd5b34801561006657600080fd5b50610081600480360381019061007c919061081d565b610137565b005b61008b6101f7565b005b34801561009957600080fd5b506100a26102f9565b6040516100af9190610888565b60405180910390f35b3480156100c457600080fd5b506100cd610321565b6040516100da91906108e4565b60405180910390f35b3480156100ef57600080fd5b506100f861034b565b005b34801561010657600080fd5b50610121600480360381019061011c91906108ff565b610494565b60405161012e91906108e4565b60405180910390f35b7f000000000000000000000000000000000000000000000000000000000000000073ffffffffffffffffffffffffffffffffffffffff163373ffffffffffffffffffffffffffffffffffffffff16146101e957337f00000000000000000000000000000000000000000000000000000000000000006040517f1cf993f40000000000000000000000000000000000000000000000000000000081526004016101e092919061092c565b60405180910390fd5b6101f382826104db565b5050565b7f0000000000000000000000000000000000000000000000000000000000000000341015610251576040517f3247b6fc00000000000000000000000000000000000000000000000000000000815260040160405180910390fd5b6000339080600181540180825580915050600190039060005260206000200160009091909190916101000a81548173ffffffffffffffffffffffffffffffffffffffff021916908373ffffffffffffffffffffffffffffffffffffffff1602179055503373ffffffffffffffffffffffffffffffffffffffff167f0805e1d667bddb8a95f0f09880cf94f403fb596ce79928d9f29b74203ba284d460405160405180910390a2565b60007f0000000000000000000000000000000000000000000000000000000000000000905090565b6000600160009054906101000a900473ffffffffffffffffffffffffffffffffffffffff16905090565b60007f000000000000000000000000000000000000000000000000000000000000000073ffffffffffffffffffffffffffffffffffffffff16635d3b1d307f00000000000000000000000000000000000000000000000000000000000000007f000000000000000000000000000000000000000000000000000000000000000060037f000000000000000000000000000000000000000000000000000000000000000060016040518663ffffffff1660e01b81526004016104109594939291906109cd565b602060405180830381600087803b15801561042a57600080fd5b505af115801561043e573d6000803e3d6000fd5b505050506040513d601f19601f820116820180604052508101906104629190610a35565b9050807f4dac394f91d0bee728ea7f660c37b16f7167bdac1905ad7234bf935d04c74ef160405160405180910390a250565b60008082815481106104a9576104a8610a62565b5b9060005260206000200160009054906101000a900473ffffffffffffffffffffffffffffffffffffffff169050919050565b60008080549050826000815181106104f6576104f5610a62565b5b60200260200101516105089190610ac0565b9050600080828154811061051f5761051e610a62565b5b9060005260206000200160009054906101000a900473ffffffffffffffffffffffffffffffffffffffff16905080600160006101000a81548173ffffffffffffffffffffffffffffffffffffffff021916908373ffffffffffffffffffffffffffffffffffffffff16021790555060008173ffffffffffffffffffffffffffffffffffffffff16476040516105b390610b22565b60006040518083038185875af1925050503d80600081146105f0576040519150601f19603f3d011682016040523d82523d6000602084013e6105f5565b606091505b5050905080610630576040517fba31c4f300000000000000000000000000000000000000000000000000000000815260040160405180910390fd5b8173ffffffffffffffffffffffffffffffffffffffff167fb8033a4cd86976545825e843f6d97133ca0c9f681876f9239922427f5807b16e60405160405180910390a25050505050565b6000604051905090565b600080fd5b600080fd5b6000819050919050565b6106a18161068e565b81146106ac57600080fd5b50565b6000813590506106be81610698565b92915050565b600080fd5b6000601f19601f8301169050919050565b7f4e487b7100000000000000000000000000000000000000000000000000000000600052604160045260246000fd5b610712826106c9565b810181811067ffffffffffffffff82111715610731576107306106da565b5b80604052505050565b600061074461067a565b90506107508282610709565b919050565b600067ffffffffffffffff8211156107705761076f6106da565b5b602082029050602081019050919050565b600080fd5b600061079961079484610755565b61073a565b905080838252602082019050602084028301858111156107bc576107bb610781565b5b835b818110156107e557806107d188826106af565b8452602084019350506020810190506107be565b5050509392505050565b600082601f830112610804576108036106c4565b5b8135610814848260208601610786565b91505092915050565b6000806040838503121561083457610833610684565b5b6000610842858286016106af565b925050602083013567ffffffffffffffff81111561086357610862610689565b5b61086f858286016107ef565b9150509250929050565b6108828161068e565b82525050565b600060208201905061089d6000830184610879565b92915050565b600073ffffffffffffffffffffffffffffffffffffffff82169050919050565b60006108ce826108a3565b9050919050565b6108de816108c3565b82525050565b60006020820190506108f960008301846108d5565b92915050565b60006020828403121561091557610914610684565b5b6000610923848285016106af565b91505092915050565b600060408201905061094160008301856108d5565b61094e60208301846108d5565b9392505050565b6000819050919050565b61096881610955565b82525050565b600067ffffffffffffffff82169050919050565b61098b8161096e565b82525050565b600061ffff82169050919050565b6109a881610991565b82525050565b600063ffffffff82169050919050565b6109c7816109ae565b82525050565b600060a0820190506109e2600083018861095f565b6109ef6020830187610982565b6109fc604083018661099f565b610a0960608301856109be565b610a1660808301846109be565b9695505050505050565b600081519050610a2f81610698565b92915050565b600060208284031215610a4b57610a4a610684565b5b6000610a5984828501610a20565b91505092915050565b7f4e487b7100000000000000000000000000000000000000000000000000000000600052603260045260246000fd5b7f4e487b7100000000000000000000000000000000000000000000000000000000600052601260045260246000fd5b6000610acb8261068e565b9150610ad68361068e565b925082610ae657610ae5610a91565b5b828206905092915050565b600081905092915050565b50565b6000610b0c600083610af1565b9150610b1782610afc565b600082019050919050565b6000610b2d82610aff565b915081905091905056fea26469706673582212202aef9b5035411247891024dcd265d430eb5716c60410383c4ccc36ea048c51f464736f6c63430008080033",
  "linkReferences": {},
  "deployedLinkReferences": {}
}