{
  "_format": "hh-sol-artifact-1",
  "contractName": "Raffle",
  "sourceName": "contracts/Raffle.sol",
  "abi": [
    {
      "inputs": [
        {
          "internalType": "address",
          "name": "vrfCoordinatorV2",
          "type": "address"
        },
        {
          "internalType": "uint256",
          "name": "entranceFee",
          "type": "uint256"
        },
        {
          "internalType": "bytes32",
          "name": "gasLane",
          "type": "bytes32"
        },
        {
          "internalType": "uint64",
          "name": "subcriptionId",
          "type": "uint64"
        },
        {
          "internalType": "uint32",
          "name": "callbackGasLimit",
          "type": "uint32"
        },
        {
          "internalType": "uint256",
          "name": "interval",
          "type": "uint256"
        }
      ],
      "stateMutability": "nonpayable",
      "type": "constructor"
    },
    {
      "inputs": [
        {
          "internalType": "address",
          "name": "have",
          "type": "address"
        },
        {
          "internalType": "address",
          "name": "want",
          "type": "address"
        }
      ],
      "name": "OnlyCoordinatorCanFulfill",
      "type": "error"
    },
    {
      "inputs": [],
      "name": "RaffleState_notOpen",
      "type": "error"
    },
    {
      "inputs": [],
      "name": "Raffle_TransferFailed",
      "type": "error"
    },
    {
      "inputs": [
        {
          "internalType": "uint256",
          "name": "currentBalnace",
          "type": "uint256"
        },
        {
          "internalType": "uint256",
          "name": "numPlayers",
          "type": "uint256"
        },
        {
          "internalType": "uint256",
          "name": "raffeState",
          "type": "uint256"
        }
      ],
      "name": "Raffle_UpkeepNotNeeded",
      "type": "error"
    },
    {
      "inputs": [],
      "name": "Raffle_notEnoughEther",
      "type": "error"
    },
    {
      "anonymous": false,
      "inputs": [
        {
          "indexed": true,
          "internalType": "address",
          "name": "recentWinner",
          "type": "address"
        }
      ],
      "name": "PicckedWinner",
      "type": "event"
    },
    {
      "anonymous": false,
      "inputs": [
        {
          "indexed": true,
          "internalType": "address",
          "name": "player",
          "type": "address"
        }
      ],
      "name": "RaffleEnter",
      "type": "event"
    },
    {
      "anonymous": false,
      "inputs": [
        {
          "indexed": true,
          "internalType": "uint256",
          "name": "requestId",
          "type": "uint256"
        }
      ],
      "name": "RaffleRequestRandomWinner",
      "type": "event"
    },
    {
      "inputs": [
        {
          "internalType": "bytes",
          "name": "",
          "type": "bytes"
        }
      ],
      "name": "checkUpkeep",
      "outputs": [
        {
          "internalType": "bool",
          "name": "upkeepNeeded",
          "type": "bool"
        },
        {
          "internalType": "bytes",
          "name": "",
          "type": "bytes"
        }
      ],
      "stateMutability": "nonpayable",
      "type": "function"
    },
    {
      "inputs": [],
      "name": "enterRaffle",
      "outputs": [],
      "stateMutability": "payable",
      "type": "function"
    },
    {
      "inputs": [],
      "name": "getEntrance",
      "outputs": [
        {
          "internalType": "uint256",
          "name": "",
          "type": "uint256"
        }
      ],
      "stateMutability": "view",
      "type": "function"
    },
    {
      "inputs": [],
      "name": "getInterval",
      "outputs": [
        {
          "internalType": "uint256",
          "name": "",
          "type": "uint256"
        }
      ],
      "stateMutability": "view",
      "type": "function"
    },
    {
      "inputs": [],
      "name": "getLatestTimeStamp",
      "outputs": [
        {
          "internalType": "uint256",
          "name": "",
          "type": "uint256"
        }
      ],
      "stateMutability": "view",
      "type": "function"
    },
    {
      "inputs": [],
      "name": "getNumWords",
      "outputs": [
        {
          "internalType": "uint256",
          "name": "",
          "type": "uint256"
        }
      ],
      "stateMutability": "pure",
      "type": "function"
    },
    {
      "inputs": [],
      "name": "getNumberOfPlayers",
      "outputs": [
        {
          "internalType": "uint256",
          "name": "",
          "type": "uint256"
        }
      ],
      "stateMutability": "view",
      "type": "function"
    },
    {
      "inputs": [
        {
          "internalType": "uint256",
          "name": "index",
          "type": "uint256"
        }
      ],
      "name": "getPlayer",
      "outputs": [
        {
          "internalType": "address",
          "name": "",
          "type": "address"
        }
      ],
      "stateMutability": "view",
      "type": "function"
    },
    {
      "inputs": [],
      "name": "getRaffleState",
      "outputs": [
        {
          "internalType": "enum Raffle.RaffleState",
          "name": "",
          "type": "uint8"
        }
      ],
      "stateMutability": "view",
      "type": "function"
    },
    {
      "inputs": [],
      "name": "getRecentWinner",
      "outputs": [
        {
          "internalType": "address",
          "name": "",
          "type": "address"
        }
      ],
      "stateMutability": "view",
      "type": "function"
    },
    {
      "inputs": [],
      "name": "getRequestConfirmation",
      "outputs": [
        {
          "internalType": "uint256",
          "name": "",
          "type": "uint256"
        }
      ],
      "stateMutability": "pure",
      "type": "function"
    },
    {
      "inputs": [],
      "name": "getTimeStamp",
      "outputs": [
        {
          "internalType": "uint256",
          "name": "",
          "type": "uint256"
        }
      ],
      "stateMutability": "view",
      "type": "function"
    },
    {
      "inputs": [
        {
          "internalType": "bytes",
          "name": "",
          "type": "bytes"
        }
      ],
      "name": "performUpkeep",
      "outputs": [],
      "stateMutability": "nonpayable",
      "type": "function"
    },
    {
      "inputs": [
        {
          "internalType": "uint256",
          "name": "requestId",
          "type": "uint256"
        },
        {
          "internalType": "uint256[]",
          "name": "randomWords",
          "type": "uint256[]"
        }
      ],
      "name": "rawFulfillRandomWords",
      "outputs": [],
      "stateMutability": "nonpayable",
      "type": "function"
    }
  ],
  "bytecode": "0x6101606040523480156200001257600080fd5b5060405162001882380380620018828339818101604052810190620000389190620002a0565b858073ffffffffffffffffffffffffffffffffffffffff1660808173ffffffffffffffffffffffffffffffffffffffff1660601b81525050508460a081815250508360c081815250508573ffffffffffffffffffffffffffffffffffffffff1660e08173ffffffffffffffffffffffffffffffffffffffff1660601b815250508267ffffffffffffffff166101008167ffffffffffffffff1660c01b815250508163ffffffff166101208163ffffffff1660e01b815250506000600160146101000a81548160ff021916908360018111156200011957620001186200033c565b5b0217905550806101408181525050426002819055505050505050506200036b565b600080fd5b600073ffffffffffffffffffffffffffffffffffffffff82169050919050565b60006200016c826200013f565b9050919050565b6200017e816200015f565b81146200018a57600080fd5b50565b6000815190506200019e8162000173565b92915050565b6000819050919050565b620001b981620001a4565b8114620001c557600080fd5b50565b600081519050620001d981620001ae565b92915050565b6000819050919050565b620001f481620001df565b81146200020057600080fd5b50565b6000815190506200021481620001e9565b92915050565b600067ffffffffffffffff82169050919050565b62000239816200021a565b81146200024557600080fd5b50565b60008151905062000259816200022e565b92915050565b600063ffffffff82169050919050565b6200027a816200025f565b81146200028657600080fd5b50565b6000815190506200029a816200026f565b92915050565b60008060008060008060c08789031215620002c057620002bf6200013a565b5b6000620002d089828a016200018d565b9650506020620002e389828a01620001c8565b9550506040620002f689828a0162000203565b94505060606200030989828a0162000248565b93505060806200031c89828a0162000289565b92505060a06200032f89828a01620001c8565b9150509295509295509295565b7f4e487b7100000000000000000000000000000000000000000000000000000000600052602160045260246000fd5b60805160601c60a05160c05160e05160601c6101005160c01c6101205160e01c6101405161149b620003e76000396000818161082f015261089d015260006106c3015260006106a0015260006106430152600061067f01526000818161041501526107b901526000818161035501526103a9015261149b6000f3fe6080604052600436106100dd5760003560e01c806353a2c19a1161007f578063ca6a9ef811610059578063ca6a9ef81461027e578063da235b22146102a9578063e55ae4e8146102d4578063fd6673f514610311576100dd565b806353a2c19a146101ea5780636e04ff0d1461021557806391ad27b414610253576100dd565b8063320229eb116100bb578063320229eb146101405780634585e33b1461016b578063473f1ddc14610194578063520684e6146101bf576100dd565b8063115cbaf5146100e25780631fe543e31461010d5780632cfcc53914610136575b600080fd5b3480156100ee57600080fd5b506100f761033c565b6040516101049190610c7a565b60405180910390f35b34801561011957600080fd5b50610134600480360381019061012f9190610e38565b610353565b005b61013e610413565b005b34801561014c57600080fd5b50610155610582565b6040516101629190610ea3565b60405180910390f35b34801561017757600080fd5b50610192600480360381019061018d9190610f19565b61058c565b005b3480156101a057600080fd5b506101a961078b565b6040516101b69190610fa7565b60405180910390f35b3480156101cb57600080fd5b506101d46107b5565b6040516101e19190610ea3565b60405180910390f35b3480156101f657600080fd5b506101ff6107dd565b60405161020c9190610ea3565b60405180910390f35b34801561022157600080fd5b5061023c60048036038101906102379190611077565b6107ec565b60405161024a929190611163565b60405180910390f35b34801561025f57600080fd5b50610268610899565b6040516102759190610ea3565b60405180910390f35b34801561028a57600080fd5b506102936108c1565b6040516102a09190610ea3565b60405180910390f35b3480156102b557600080fd5b506102be6108ce565b6040516102cb9190610ea3565b60405180910390f35b3480156102e057600080fd5b506102fb60048036038101906102f69190611193565b6108d8565b6040516103089190610fa7565b60405180910390f35b34801561031d57600080fd5b5061032661091f565b6040516103339190610ea3565b60405180910390f35b6000600160149054906101000a900460ff16905090565b7f000000000000000000000000000000000000000000000000000000000000000073ffffffffffffffffffffffffffffffffffffffff163373ffffffffffffffffffffffffffffffffffffffff161461040557337f00000000000000000000000000000000000000000000000000000000000000006040517f1cf993f40000000000000000000000000000000000000000000000000000000081526004016103fc9291906111c0565b60405180910390fd5b61040f828261092b565b5050565b7f000000000000000000000000000000000000000000000000000000000000000034101561046d576040517f3247b6fc00000000000000000000000000000000000000000000000000000000815260040160405180910390fd5b6000600181111561048157610480610c03565b5b600160149054906101000a900460ff1660018111156104a3576104a2610c03565b5b146104da576040517f5f24256a00000000000000000000000000000000000000000000000000000000815260040160405180910390fd5b6000339080600181540180825580915050600190039060005260206000200160009091909190916101000a81548173ffffffffffffffffffffffffffffffffffffffff021916908373ffffffffffffffffffffffffffffffffffffffff1602179055503373ffffffffffffffffffffffffffffffffffffffff167f0805e1d667bddb8a95f0f09880cf94f403fb596ce79928d9f29b74203ba284d460405160405180910390a2565b6000600254905090565b60006105a6604051806020016040528060008152506107ec565b509050806106155747600080549050600160149054906101000a900460ff1660018111156105d7576105d6610c03565b5b6040517fe059521b00000000000000000000000000000000000000000000000000000000815260040161060c939291906111e9565b60405180910390fd5b60018060146101000a81548160ff0219169083600181111561063a57610639610c03565b5b021790555060007f000000000000000000000000000000000000000000000000000000000000000073ffffffffffffffffffffffffffffffffffffffff16635d3b1d307f00000000000000000000000000000000000000000000000000000000000000007f000000000000000000000000000000000000000000000000000000000000000060037f000000000000000000000000000000000000000000000000000000000000000060016040518663ffffffff1660e01b8152600401610704959493929190611298565b602060405180830381600087803b15801561071e57600080fd5b505af1158015610732573d6000803e3d6000fd5b505050506040513d601f19601f820116820180604052508101906107569190611300565b9050807f4dac394f91d0bee728ea7f660c37b16f7167bdac1905ad7234bf935d04c74ef160405160405180910390a250505050565b6000600160009054906101000a900473ffffffffffffffffffffffffffffffffffffffff16905090565b60007f0000000000000000000000000000000000000000000000000000000000000000905090565b6000600163ffffffff16905090565b600060606000600160149054906101000a900460ff16600181111561081457610813610c03565b5b6000600181111561082857610827610c03565b5b14905060007f00000000000000000000000000000000000000000000000000000000000000006002544261085c919061135c565b1190506000806000805490501190506000804711905082801561087c5750835b80156108855750805b801561088e5750815b955050505050915091565b60007f0000000000000000000000000000000000000000000000000000000000000000905090565b6000600361ffff16905090565b6000600254905090565b60008082815481106108ed576108ec611390565b5b9060005260206000200160009054906101000a900473ffffffffffffffffffffffffffffffffffffffff169050919050565b60008080549050905090565b600080805490508260008151811061094657610945611390565b5b602002602001015161095891906113ee565b9050600080828154811061096f5761096e611390565b5b9060005260206000200160009054906101000a900473ffffffffffffffffffffffffffffffffffffffff16905080600160006101000a81548173ffffffffffffffffffffffffffffffffffffffff021916908373ffffffffffffffffffffffffffffffffffffffff1602179055506000600160146101000a81548160ff02191690836001811115610a0357610a02610c03565b5b0217905550600067ffffffffffffffff811115610a2357610a22610cf5565b5b604051908082528060200260200182016040528015610a515781602001602082028036833780820191505090505b5060009080519060200190610a67929190610b5c565b504260028190555060008173ffffffffffffffffffffffffffffffffffffffff1647604051610a9590611450565b60006040518083038185875af1925050503d8060008114610ad2576040519150601f19603f3d011682016040523d82523d6000602084013e610ad7565b606091505b5050905080610b12576040517fba31c4f300000000000000000000000000000000000000000000000000000000815260040160405180910390fd5b8173ffffffffffffffffffffffffffffffffffffffff167fb8033a4cd86976545825e843f6d97133ca0c9f681876f9239922427f5807b16e60405160405180910390a25050505050565b828054828255906000526020600020908101928215610bd5579160200282015b82811115610bd45782518260006101000a81548173ffffffffffffffffffffffffffffffffffffffff021916908373ffffffffffffffffffffffffffffffffffffffff16021790555091602001919060010190610b7c565b5b509050610be29190610be6565b5090565b5b80821115610bff576000816000905550600101610be7565b5090565b7f4e487b7100000000000000000000000000000000000000000000000000000000600052602160045260246000fd5b60028110610c4357610c42610c03565b5b50565b6000819050610c5482610c32565b919050565b6000610c6482610c46565b9050919050565b610c7481610c59565b82525050565b6000602082019050610c8f6000830184610c6b565b92915050565b6000604051905090565b600080fd5b600080fd5b6000819050919050565b610cbc81610ca9565b8114610cc757600080fd5b50565b600081359050610cd981610cb3565b92915050565b600080fd5b6000601f19601f8301169050919050565b7f4e487b7100000000000000000000000000000000000000000000000000000000600052604160045260246000fd5b610d2d82610ce4565b810181811067ffffffffffffffff82111715610d4c57610d4b610cf5565b5b80604052505050565b6000610d5f610c95565b9050610d6b8282610d24565b919050565b600067ffffffffffffffff821115610d8b57610d8a610cf5565b5b602082029050602081019050919050565b600080fd5b6000610db4610daf84610d70565b610d55565b90508083825260208201905060208402830185811115610dd757610dd6610d9c565b5b835b81811015610e005780610dec8882610cca565b845260208401935050602081019050610dd9565b5050509392505050565b600082601f830112610e1f57610e1e610cdf565b5b8135610e2f848260208601610da1565b91505092915050565b60008060408385031215610e4f57610e4e610c9f565b5b6000610e5d85828601610cca565b925050602083013567ffffffffffffffff811115610e7e57610e7d610ca4565b5b610e8a85828601610e0a565b9150509250929050565b610e9d81610ca9565b82525050565b6000602082019050610eb86000830184610e94565b92915050565b600080fd5b60008083601f840112610ed957610ed8610cdf565b5b8235905067ffffffffffffffff811115610ef657610ef5610ebe565b5b602083019150836001820283011115610f1257610f11610d9c565b5b9250929050565b60008060208385031215610f3057610f2f610c9f565b5b600083013567ffffffffffffffff811115610f4e57610f4d610ca4565b5b610f5a85828601610ec3565b92509250509250929050565b600073ffffffffffffffffffffffffffffffffffffffff82169050919050565b6000610f9182610f66565b9050919050565b610fa181610f86565b82525050565b6000602082019050610fbc6000830184610f98565b92915050565b600080fd5b600067ffffffffffffffff821115610fe257610fe1610cf5565b5b610feb82610ce4565b9050602081019050919050565b82818337600083830152505050565b600061101a61101584610fc7565b610d55565b90508281526020810184848401111561103657611035610fc2565b5b611041848285610ff8565b509392505050565b600082601f83011261105e5761105d610cdf565b5b813561106e848260208601611007565b91505092915050565b60006020828403121561108d5761108c610c9f565b5b600082013567ffffffffffffffff8111156110ab576110aa610ca4565b5b6110b784828501611049565b91505092915050565b60008115159050919050565b6110d5816110c0565b82525050565b600081519050919050565b600082825260208201905092915050565b60005b838110156111155780820151818401526020810190506110fa565b83811115611124576000848401525b50505050565b6000611135826110db565b61113f81856110e6565b935061114f8185602086016110f7565b61115881610ce4565b840191505092915050565b600060408201905061117860008301856110cc565b818103602083015261118a818461112a565b90509392505050565b6000602082840312156111a9576111a8610c9f565b5b60006111b784828501610cca565b91505092915050565b60006040820190506111d56000830185610f98565b6111e26020830184610f98565b9392505050565b60006060820190506111fe6000830186610e94565b61120b6020830185610e94565b6112186040830184610e94565b949350505050565b6000819050919050565b61123381611220565b82525050565b600067ffffffffffffffff82169050919050565b61125681611239565b82525050565b600061ffff82169050919050565b6112738161125c565b82525050565b600063ffffffff82169050919050565b61129281611279565b82525050565b600060a0820190506112ad600083018861122a565b6112ba602083018761124d565b6112c7604083018661126a565b6112d46060830185611289565b6112e16080830184611289565b9695505050505050565b6000815190506112fa81610cb3565b92915050565b60006020828403121561131657611315610c9f565b5b6000611324848285016112eb565b91505092915050565b7f4e487b7100000000000000000000000000000000000000000000000000000000600052601160045260246000fd5b600061136782610ca9565b915061137283610ca9565b9250828210156113855761138461132d565b5b828203905092915050565b7f4e487b7100000000000000000000000000000000000000000000000000000000600052603260045260246000fd5b7f4e487b7100000000000000000000000000000000000000000000000000000000600052601260045260246000fd5b60006113f982610ca9565b915061140483610ca9565b925082611414576114136113bf565b5b828206905092915050565b600081905092915050565b50565b600061143a60008361141f565b91506114458261142a565b600082019050919050565b600061145b8261142d565b915081905091905056fea2646970667358221220ba02128a953847931b271ba03f13a403ce35b7bd6ee45ac946da1b13e462e3fb64736f6c63430008080033",
  "linkReferences": {},
  "deployedLinkReferences": {}
}